:020000040800F2
:10300000B039002009310008F95D0008B94E000808
:1030100045550008494000084986000800000000A6
:10302000000000000000000000000000D57400084F
:10303000C14800080000000031660008C17C00089B
:103040002331000823310008233100082331000810
:103050002331000823310008DD490008233100082E
:1030600023310008233100082331000823310008F0
:1030700023310008233100082331000823310008E0
:1030800023310008233100082331000823310008D0
:1030900099850008233100082331000823310008F6
:1030A00023310008233100082331000823310008B0
:1030B000233100081D7D0008917E0008233100089F
:1030C0002331000823310008233100082331000890
:1030D0002331000823310008518200082331000801
:1030E000F5490008233100088D84000823310008C9
:1030F000217F0008DFF80CD000F01EFD00480047DB
:10310000DDBF0008B0390020064880470648004768
:10311000FEE7FEE7FEE7FEE7FEE7FEE7FEE7FEE787
:10312000FEE7FEE7C57C0008F530000840EA010331
:103130009B0703D009E008C9121F08C0042AFAD26D
:1031400003E011F8013B00F8013B521EF9D2704731
:1031500030B505462A460B4612F8010B13F8014B11
:1031600008B1A042F8D01CB1002802D06D1CF1E7D4
:10317000284630BDF0B480EA0102D40F4200B2EB21
:10318000410F02D20246084611464A0042D0C30D02
:10319000DDB2C1F3C752AD1A202D35DAC1F31601E5
:1031A00041F4000204B15242C5F1200602FA06F1D0
:1031B0002A411044B3EBD05F23D0C4B1012DA0EB62
:1031C000C35009DCF0BC4FF0004202EAC35200F5E4
:1031D0000000DBB200F0BBBB400000F1807000EBF0
:1031E000C350A0F1807040EAD170490009E049085D
:1031F00041EAC071A0EBC35000F50000400800EBAD
:10320000C350F0BC00F09ABB6142012202EB4101C5
:10321000001BF6E7F0BC704781F00041AAE780F0A0
:103220000040A7E780EA010210B502F00043400029
:1032300026D04A0023D04FEA106101EB1261C0F39F
:103240005600C2F3560240F4000042F40002A0FB14
:103250000220A1F17F014FEA0040140401D000F1E7
:10326000010050EA124001D44000491EC2B20C06CF
:1032700004EBD010401C4008802A02D003E000205C
:1032800010BD20F00100002900DA0020184310BD15
:1032900030B480EA010202F0004530F0004221F033
:1032A000004015D0A0B1C0F3C753C2F3C754C2F356
:1032B0001601C0F31600E41A41F4000140F40002C4
:1032C0007D34914201D3641C00E04900002C02DAF5
:1032D00030BC002070474FF400000023914201D31E
:1032E000891A034340084FEA4101F7D151B1914295
:1032F00002D14FF0004105E002D24FF0010101E0A0
:103300006FF0010103EBC450284430BC00F016BB41
:10331000420005D0C0F3C7525242914201DC002066
:10332000704700EBC15070472DE9FE4F804681EA9F
:103330000300C00F0C46009021F0004123F000452F
:10334000B8EB0200A94105D24046214690461C46F2
:103350000B46024623F00040104304D1404621466C
:1033600003B0BDE8F08F270DC7F30A00C3F30A517D
:103370000290401A0190402866DAC3F3130040F42B
:10338000801B0098924620B10023D2EB030A63EB26
:103390000B0B01985946C0F14002504600F09DFACF
:1033A00006460D4650465946019A00F0B5FA10EB14
:1033B00008006141002487EA115284EAE7731A4346
:1033C0003BD0009A3AB3019A012A4FEA075210DC27
:1033D000001B61EB02014FF0004202EA0752CDE907
:1033E0000042001C41F5801132462B4600F0E9FAFC
:1033F000B6E7001B61EB0201001C41F580130018C9
:103400005B412018A2F5001747EB030140EAD57095
:10341000B6196D4111E06D084FEA360645EAC075F0
:103420004FEA0752001B61EB0201001C41F58011BD
:1034300049084FEA30000019514132462B4603B08B
:10344000BDE8F04F00F0B0BA009801224000002320
:10345000D0EB020263EBE073009821464FEAE07480
:10346000B8EB000061EB0401E9E783F000435BE7A0
:1034700081F0004158E72DE9FE4F81EA030404F092
:10348000004421F0004100944FF0000B23F0004372
:1034900050EA010402D052EA030404D1002001469C
:1034A00003B0BDE8F08FC3F30A54C1F30A552C44AE
:1034B000A4F2F3340194A0FB0254C1F3130141F4CC
:1034C0008011C3F3130343F4801301FB024400FB98
:1034D000034E840A970A44EA815447EA8357A4FBBF
:1034E000076802958D0A05FB07854FEA932C04FBBC
:1034F0000C542705029D4FEA065847EA1637B5EBEC
:1035000008056EEB070C870E920E47EA811742EA18
:103510008312A7FB0201B6EB0B0164EB00042B0D39
:1035200043EA0C335E1844EB1C50DA465146E7FB85
:103530000201C5F313044FEA0B3343EA14534FEA75
:103540000432019C43EA0603A4F10C040294009C9B
:10355000CDE900B400F035FAA2E72DE9F04D81EA9B
:10356000030404F0004B21F0004514464FF0000A1C
:1035700023F0004150EA050220D054EA01021DD098
:10358000C5F30A570246C5F31303C1F31300C1F391
:103590000A5640F4801543F48013A7EB0608101B6D
:1035A000D64608F2FD3873EB050002D308F1010896
:1035B00001E092185B41B8F1000F03DA00200146E8
:1035C000BDE8F08D00204FF48011064684460EE0E1
:1035D000171B73EB050705D3121B63EB05030643AB
:1035E0004CEA010C49084FEA300092185B4150EA5E
:1035F0000107EDD152EA030012D082EA040083EA07
:103600000501084303D100224FF0004308E0101BDE
:10361000AB4102D20122002302E06FF001025310FD
:103620001AEB06004CEB085110EB0A0041EB0B01C2
:10363000BDE8F04D00F0B8B970B521F00043034388
:103640000CD0C1F30A550024D5EB040564EB040348
:10365000D617AD1AB34102DB0020014670BD201819
:1036600041EB025170BDC10F80EAE0700844CA0707
:103670009623002100F06BB996230022114600F03A
:1036800066B90EB5C10F80EAE0700844CA07002190
:1036900040F233438DE80E000A460B4600F091F9E4
:1036A00003B000BD0EB540F2334102910021CDE9D7
:1036B00000110A460B4600F084F903B000BD00F08B
:1036C000004220F00040C10DC0F3160040F400009D
:1036D0007F2901DA00207047962903DCC1F19601A9
:1036E000C84001E096398840002AF4D04042704733
:1036F00020F00040C10DC0F3160040F400007F2907
:1037000001DA00207047962903DCC1F19601C84018
:10371000704796398840704770B5C1F30A5201F07E
:1037200000450024C1F3130140F2FF3341F480113E
:103730009A4201DA002070BD40F233439A42A2F26D
:10374000334203DC524200F0D7F800E090402C43B3
:10375000F1D0404270BDC1F30A5210B5C1F313015C
:1037600040F2FF3341F480119A4201DA002010BD8B
:1037700040F233439A42A2F2334203DC524200F059
:10378000BBF810BD904010BD00F0004230F000408A
:103790000AD0C10D01F56071C0F3160042EA015173
:1037A000C2084007114370470020014670470000DF
:1037B00030B5002904DB4FF00044404264EB0101C6
:1037C000002B04DB4FF00044524264EB03038B42B6
:1037D00008BF824230BD000030B5002904DB4FF045
:1037E0000044404264EB0101002B04DB4FF0004435
:1037F000524264EB0303994208BF904230BD00007F
:1038000001F0004330B421F0004150EA010206D03B
:103810000A0DA2F56072C1F31301002A02DC30BC6C
:1038200000207047440F44EAC104C100E01830BCD6
:1038300000EBC25000F082B8002801DBC0F100406C
:10384000002901DBC1F100418842704730B50B46C9
:10385000014600202022012409E021FA02F59D42C0
:1038600005D303FA02F5491B04FA02F52844151E94
:10387000A2F10102F1DC30BD2DE9F05F0546002028
:1038800092469B4688460646814640241BE02846D1
:1038900041464746224600F02FF853465A46C01A82
:1038A000914110D311461846224600F016F82D1A01
:1038B00067EB01084F4622460120002100F00DF879
:1038C00017EB00094E41201EA4F10104DFDC48463D
:1038D00031462A464346BDE8F09F202A04DB203AC1
:1038E00000FA02F1002070479140C2F1200320FA53
:1038F00003F3194390407047202A04DB203A21FA51
:1039000002F00021704721FA02F3D040C2F12002F8
:103910009140084319467047202A06DBCB17203A0E
:1039200041FA02F043EAE07306E041FA02F3D040C4
:10393000C2F1200291400843194670470029A8BFF0
:103940007047401C490008BF20F00100704710B4C8
:10395000B0FA80FC00FA0CF050EA010404BF10BC7D
:10396000704749B1CCF1200421FA04F411FA0CF1AA
:1039700018BF012121430843A3EB0C01CB1D010615
:10398000000A002BBEBF002010BC704700EBC350E4
:1039900010440029A4BF10BC7047401C490008BF58
:1039A00020F0010010BC704710B5002B08DA401C55
:1039B00041F1000192185B411A4301D120F001004E
:1039C00010BD2DE9F04D92469B4611B1B1FA81F23E
:1039D00002E0B0FA80F220329046FFF77EFF044604
:1039E0000F4640EA0A0041EA0B0153465A46084393
:1039F00003D120463946BDE8F08D114653EA010057
:103A000015D0C8F140025046FFF776FF05460E4636
:103A1000504659464246FFF760FF084301D0012057
:103A200000E00020054346EAE0762C4337430A983D
:103A30004FEA4453A0EB08004FEAD4240A304FF079
:103A4000000244EA47544FEAD72502D50020014638
:103A5000D1E7010510196941DDE9084500196941FF
:103A6000BDE8F04DA0E72DE9F04D00231A461B1AE2
:103A70008A4103DB00200146BDE8F08DC1F30A5204
:103A8000C1F3130141F480154FF0000BD10702D1AF
:103A900000186D41521E0027044640F2FF113846BF
:103AA00001EB620A3E468046024600204FF4801138
:103AB000FFF722FFC2197141BB1846EB0100B4EBBE
:103AC000030C75EB000C04D3E41A65EB00051746F4
:103AD0000E46241908F101006D4180463428E3DDCB
:103AE000F91946EB0600091BA84103D24FF0FF323B
:103AF000134601E0002213461BEB070046EB0A5178
:103B0000BDE8F04DFFF750BFC1F30A52C1F31301F6
:103B100040F2FF3341F480119A4202DA002001465C
:103B2000704740F233439A42A2F2334202DC5242DF
:103B3000FFF7E2BEFFF7D1BE064C074D06E0E06896
:103B400040F0010394E8070098471034AC42F6D3E4
:103B5000FFF7D4FAC4AD0108E4AD010870B501EB7C
:103B6000020410F8015B15F0070301D110F8013BC6
:103B70002A1106D110F8012B03E010F8016B01F8AF
:103B8000016B5B1EF9D12B0705D40023521E0FD405
:103B900001F8013BFAE710F8013B02F10202A1EB48
:103BA000030303E013F8015B01F8015B521EF9D532
:103BB000A142D6D3002070BD0029816802D041F017
:103BC000010101E021F001018160704710B588B06A
:103BD000012002F02FFE0121022002F063FD4FF4CC
:103BE0000040069003208DF81C0000248DF81F4033
:103BF00006A9254800F0D1FF0121480202F06AFD24
:103C0000684600F026F900948DF8044001200294E3
:103C100004941E4C8DF805008DF81400694620466A
:103C200000F078F8052301221521204600F0A0F8C5
:103C30001021204600F05EF801224FF4403120466A
:103C400000F08EF801212046FFF7B6FF10A004F027
:103C500027FE4021204600F056F80028F9D013A096
:103C600004F01EFE204600F0EFF815A004F018FE48
:103C70000221204600F047F80028F9D017A004F0F0
:103C80000FFE08B010BD00000004024000240140F7
:103C90000D0A204144435F436D6428414443312C65
:103CA00020454E41424C4529000000000D0A2041AC
:103CB00044435F464C41475F41444F4E5300000030
:103CC0000D0A204144435F536F66747761726553F8
:103CD00074617274436F6E76000000000D0A20411B
:103CE00044435F476574466C6167537461747573D0
:103CF00000000000826822F0F0020A4382607047F0
:103D0000806D80B270470246002012680A4200D0DF
:103D10000120704730B542680F4B0C791A400B6890
:103D200042EA04221343436082680C4B4D791A40E7
:103D3000D1E9034323438C6844EA450423431343F6
:103D40008360026B097D22F0F872491EC9B242EA13
:103D50000151016330BD0000FFFEFFFCFDF7FFC015
:103D6000002A426801D00A4300E08A43426070475B
:103D700070B507241D290AD9C56DA1F11E0606EBF1
:103D80004606B440A543B3401D43C56521E0132951
:103D90000AD9C568A1F1140606EB4606B440A5434E
:103DA000B3401D43C56014E009290AD90569A1F192
:103DB0000A0606EB4606B440A543B3401D43056121
:103DC00007E0456901EB4106B440A543B3401D43FC
:103DD00045611F23072A09D2046C521E02EB82029E
:103DE00093409C4391400C43046470BD0D2A09D25A
:103DF000C46BD21F02EB820293409C4391400C4360
:103E0000C46370BD132A09D2846B0D3A02EB82029F
:103E100093409C4391400C43846370BD192A09D29E
:103E2000446B133A02EB820293409C4391400C4353
:103E3000446370BD046B193A02EB820293409C43C9
:103E400091400C43046370BD816841F08041816002
:103E5000704700210160017141714FF04072C0E96B
:103E60000212016101210175704700002DE9FF4731
:103E7000364D002003AA29680B5C1354401CC0B2C5
:103E80000328F9D3324E002404EB440030440322CB
:103E900003A90FF055FC18B9641CE4B20C2CF3D341
:103EA0002868641CE6B202796FF02F01202A4AD0FC
:103EB000303A437902EB820201EB42021A44D4B257
:103EC000827A407A303800EB800001EB40001044E9
:103ED000204A126813785578303B03EB830301EBDB
:103EE00043032B44DFB2D3781579303B03EB8303D4
:103EF00001EB43032B4403F0FF08D3799279303A66
:103F000002EB820201EB4201194401F0FF09124960
:103F100022460D1D0F7081F8018081F80290AC706F
:103F20006E70E87000F5FA6080B2314602F0E4FD90
:103F300028708DE88003E9782346324607A004F014
:103F4000AFFCBDE8FF874279303AB8E71C0000209B
:103F50001CA80108180000207C0200204175746F25
:103F60005F54696D655F5365742025642D25642D4C
:103F70002564202025643A25643A25640A0000005F
:103F80000F4810B5406AFFF76EFB0E49FFF780F946
:103F9000FFF7FAFB4FF040420B4B0EF079F8FFF7BA
:103FA0002FFC01464FF07E50FFF736F90749FFF727
:103FB00039F90749FFF736F9BDE81040FFF77FBB35
:103FC0002402002080E6C547955BC83F002A2D47A4
:103FD0000000C84270B503F04FF8084C0120606043
:103FE000052007F089FA2068054DA871002060605F
:103FF000052007F081FAA87970BD0000A082404238
:104000002402002070B5054603F04AF8064C2560EE
:1040100001206060052007F06FFA00206060BDE8B5
:104020007040052007F068BAA082404210B500F049
:10403000A1FFBDE81040FFF7CDBF10B506F0F0F8C6
:10404000BDE8104000F078BAFEE700001CB54FF064
:10405000804401281FD00220009000208DF8040029
:104060008DF807006946124800F097FD00210120F5
:1040700002F024FB0021204603F096FF0021204699
:1040800003F060FF0021204603F066FF09A000BF97
:1040900004F006FC1CBD02F015FA0121204603F0D5
:1040A00051FF0121204603F057FF08A0F0E7000070
:1040B000000002400D0A20427574746F6E5F6B65DC
:1040C000795F706572737320310000000D0A204221
:1040D0007574746F6E5F6B65795F70657273732052
:1040E00030000000C1B2000A40EA01207047000021
:1040F0002DE9F84F0020ADF80000DFF830A14BF6B5
:10410000BF7648F28007484D40F68F78474C48F616
:104110000F7BDFF81C910AF1440A2DE0018811F0B1
:104120000F0244490A7030D004EB82000168ADF8F8
:104130000010BDF8001009040BD53E49026802EAE0
:10414000080202603C4A087802EB800050F8040C38
:104150008047BDF8000000060ED53649087804EB0C
:104160008002106800EA0B0010603448097800EB08
:10417000810050F8040C8047DAF800104846A9F88E
:1041800000100904CAD4BDE8F88F21682980298865
:1041900001F030016980298801F4405129802168AB
:1041A000314081F4005181F02001394321600088C1
:1041B000C006206815D400EA0B00206000F028FF3C
:1041C00026E02988890401D580F400506988C90651
:1041D00026D46988890601D580F020003843206004
:1041E000D1E7ADF80000BDF80000000506D5206855
:1041F00000EA0800206003F06BFB09E0BDF8000056
:104200000004B9D5206800EA0800206002F026F911
:10421000206829883040C904D3D580F48050D0E785
:1042200080F01000D5E70000D6010020005C0040BF
:1042300042000020C6010020600000204400002051
:104240002DE9F043064601468FB087A004F028FB15
:10425000894D8A4C4FF4006740F23F684FF4E139D2
:104260004EB3022E65D0062E7DD0072E5ED10020E3
:1042700002F086F9202002F0B3F90028FAD138467E
:1042800002F0CAF9102002F0ABF90028FAD102F0CE
:1042900077F9002002F0BAF9002000F049FC012073
:1042A00002F066F9012002F0A5F903F00BFD02F01F
:1042B00041FB734836E0002002F062F9202002F052
:1042C0008FF90028FAD1384602F0A6F9102002F042
:1042D00087F90028FAD103F01BFA002002F050F908
:1042E000002002F093F9002000F022FC012002F0EF
:1042F0003FF9012002F07EF9102007F0C7F841468F
:10430000632003F085FF48460FF05CFE02F012FBCD
:1043100002F01CFF2078032803D10120207001F057
:1043200042FE584828600020FFF790FE0FB0BDE81D
:10433000F08300F0C1FB002002F05CF9012002F0E4
:1043400065F9012200214FF4404003F007FA40F2E2
:10435000A311632003F05CFF042007F097F84846A0
:104360000FF030FE00E013E002F0F0FE01F07EFE00
:1043700002F0E0FA444828600020FFF767FE0120C1
:1043800002F0FEF8202002F02BF90028FAD0CDE749
:104390003E4800250570207818B12570032007F0ED
:1043A000BFF801F0F1FD02F0D3FE00F045FC002063
:1043B00002F020F9012002F029F9684600F09CF88B
:1043C0004FF0E020056101221146002003F0C6F9FC
:1043D00000F0AEFE0121084602F0E8F803F098F97B
:1043E000384602F019F9102002F0FAF80028FAD144
:1043F00001F02CF8079826490860099824490831EB
:1044000008600898091F08600A9921480C3001606B
:104410000C981F49143108600B98091F0860092087
:1044200003F024FC102007F031F8002002F0A8F877
:10443000002002F0EBF8002000F07AFB012002F0EF
:1044400097F8012002F0D6F802F0F0FD00F0DEFF50
:104450004146632003F0DCFE48460FF0B3FD02F056
:10446000DDFE02F067FA61E74D63755F53746174B6
:10447000653A25640D0A2000A40100202D010020CA
:104480000048E8010024F400D0FE3F00680200204C
:104490001C380240074901EB80000168490407D538
:1044A000016848F68F7211404CF28002114301609E
:1044B00070470000005C0040074901EB8000016884
:1044C000490607D5016848F68F72114048F2C002CC
:1044D0001143016070470000005C0040054901EB9A
:1044E0008001086848F68F62104048F2800210434D
:1044F00008607047005C004030B50E490A68C26130
:104500000C4B08331A6842620C1D226802621A1DA5
:1045100015688562074D14352D680563151D2D68D6
:10452000C5620420086010608006186000202060CA
:1045300030BD00001C38024010B5FFF721FD0F49C7
:104540000F4A886292F82430012B0FD0107801288E
:104550000BD10C4890F87320032A06D1C06F0A22B1
:1045600090FBF2F064225043886210BD126A6FF033
:1045700018035A4300EB8200F6E7000024020020F3
:10458000201900203C31002070B505464FF400464C
:104590000C46304600F0E4FA042805D12C60304681
:1045A000BDE8704000F0DCBA70BD0000054800684E
:1045B000C00705D003480449083001600349016081
:1045C00070470000043C0240EFCDAB8905040302B4
:1045D0002DE9F047DFF89480254F4FF03009D8F8E7
:1045E000001001F11005088A0E7A08B9042E04D0D3
:1045F000AC88A04215D8042614E01E480178012991
:1046000003D00726102038802BE01B4A00211268B7
:104610001A4B92B203EB42025160A7F8009001706E
:104620001FE00226844200D90446A9682046884734
:104630008246002000F0C8FB01462246504604F0A6
:1046400005F82146002003F021F82888001B288067
:10465000688820446880A7F8009009494FF44050CA
:104660000880D8F800000672BDE8F087C801002075
:10467000D8010020C2010020505C004000600040D2
:10468000D60100202DE9F047224EDFF88C8030273C
:10469000356835F8100FA968A9B100B3AC88844219
:1046A00000D904462046884781462888001B288078
:1046B000688820446880002000F066FB014622469E
:1046C000484601F0EFFE288848B114494FF44050A5
:1046D00008800021084602F0D9FFA8F80070288859
:1046E000A988884201D3032001E020B10520316868
:1046F0000872BDE8F087316806200872084900207A
:104700000968084A89B202EB41014860A8F80070C4
:10471000EFE70000C8010020D8010020D6010020EA
:10472000505C004000600040F8B55C4C5C4D0926D0
:104730002068002729684278062A05D0AAB1082AED
:104740004BD00A2A4ED069E00278520666D18078B2
:10475000012804D0022804D0032804D05EE0C969EF
:1047600054E0096A52E0496A50E04288A2BBC2881C
:10477000022A53D102797ABB0278530601D1838889
:1047800033B102F07F02012A04D0022A0CD045E0A6
:1047900044493BE08A69407900219047E0B92068AC
:1047A000807A0028F4D139E0417901F00F0001F05E
:1047B00070020B063C4951F8201003D5C1F30111DA
:1047C000090102E0C1F301310903384B1B78834230
:1047D00024D90AB90029DBD120E0007840061DD198
:1047E000334913E0027802F07F02012A16D1827A5F
:1047F000A2B1428892B9027982B9C288012A0DD148
:104800008A6940790021904740B92A4931B120682E
:104810004782816100208847002006E029682068DF
:10482000096940788847032807D021680A8AA2F5D9
:104830007F43FF3B04D10E72F8BD20680672F8BDBD
:10484000022809D042B10878000621D5C888009016
:10485000824205D9088213E04FF008000872F8BDC3
:104860000ED22868144B90F82C00824201D21F709F
:1048700006E0B2FBF0F400FB142008B90120187028
:10488000286890F82C008882BDE8F840FFF7A0BEA9
:1048900003200872094900030880F8BDC801002000
:1048A000CC010020B97A0008005C0040E80000203C
:1048B0004D7A0008917A0008C2010020D60100203C
:1048C00070470000214930B4086081B240F64E4282
:1048D0001F4891420AD8FF2180F828101D4800681F
:1048E000002810D130BC0620FFF7AABC40F6485281
:1048F000914201D2002104E040F64C62914204D87A
:10490000012180F8281030BC7047114A41F24A0456
:10491000032392F82920A14206D3012A01D10521BF
:10492000EFE780F82830EEE740F6D864A14206D9D8
:10493000012AF6D190F828100529E4D0F1E740F6D5
:1049400092629142DFD90221DBE7000020020020C1
:10495000201900203402414270B514480178012921
:104960000FD1134C0026236853B11249402B08681D
:1049700082B207D940304025403B0860236005E003
:10498000067070BD184408609DB226600A48C021B8
:1049900010442A4603F05AFE2946012002F076FE12
:1049A000BDE87040012002F097BE0000000000202A
:1049B0000C00002008000020D803002010B5064994
:1049C000032003F0FBFDC1B2034803F009FEBDE87C
:1049D0001040032002F03ABEE613002010B501207B
:1049E00000F022F8002804D0BDE81040012000F0BB
:1049F00015B810BD10B54FF40054204600F014F85F
:104A0000002808D004494FF4FA7008802046BDE819
:104A1000104000F003B810BD4001002001490860BB
:104A20007047000014040140064A01460020126845
:104A3000044B0A4014331B680B4202D0002A00D0FA
:104A4000012070470004014030B51A49837902689B
:104A500053B30B6893430B600A1D13680468A343A8
:104A6000136002790A441368046823431360114AEF
:104A7000083213680468A3431360131D1C6805689B
:104A8000AC431C604479102C05D021440A680068AE
:104A900002430A6030BD116804682143116019683F
:104AA00000680143196030BD0079084401689143F2
:104AB000016030BD000401400149032008607047D7
:104AC000100100200149086070470000183C0240B6
:104AD000084904200A68D20701D0012070470A68FB
:104AE000D20501D502207047096811F4F05FFAD0B1
:104AF00003207047183C024005490028086802D08E
:104B000040F0020001E020F0020008607047000061
:104B1000003C024005490028086802D040F004002B
:104B200001E020F00400086070470000003C0240F3
:104B300005490028086802D040F0080001E020F094
:104B40000800086070470000003C0240034A1168FA
:104B500021F001010143116070470000003C024058
:104B600008B5034604208DF80000FFF7B1FF8DF86B
:104B7000000004E0FFF7ACFF8DF800005B1E9DF81D
:104B80000000012801D013B104E0002BF2D1052070
:104B90008DF800009DF8000008BDF0B50023012449
:104BA00003270D6804FA03F21540954240D1D0F86E
:104BB00000C05E0007FA06F52CEA050CC0F800C03C
:104BC00091F804C0D0F800E00CFA06FC4CEA0E0C98
:104BD000C0F800C091F804C0BCF1010F02D0BCF1D4
:104BE000020F1DD1D0F808C02CEA050CC0F808C08F
:104BF00091F805C0D0F808E00CFA06FC4CEA0E0C5F
:104C0000C0F808C0B0F804C02CEA020CA0F804C038
:104C1000B0F804C08A799A404CEA020CA0F804C0AB
:104C2000C268AA43C260CA79C568B2402A43C2605A
:104C30005B1C102BB5D3F0BD2DE9FC41234C206843
:104C40002349244D08602868234E48603068234A71
:104C500088601068C860E06808611E480C30006811
:104C600048611D480C30006888611C480C300068A1
:104C7000C86100208DF8050003218DF804108DF81F
:104C800006008DF80700401E4FF6FF7710604FF6C4
:104C9000EA70009069462046FFF77FFF04200090ED
:104CA00001208DF8070069462046FFF776FF4DF694
:104CB000FF70009069463046FFF76FFF694628464F
:104CC0000097FFF76AFFBDE8FC810000000002408A
:104CD000F80100200004024000080240000C0240DD
:104CE0004B07DB0E9A40C90810B500EB8100016A42
:104CF0000F249C40A1430162016A1143016210BD6F
:104D0000418370470183704770B50C46054600F03B
:104D100067FE2146284600F0E3FD2146284600F0C4
:104D20000FFE2146284600F0D1FE21462846BDE868
:104D3000704000F0B5BF00007CB506460121084672
:104D400001F0B0FC00214FF480740E48012E009455
:104D500007D08DF804108DF807106946FFF71DFF86
:104D60007CBD01228DF804208DF806108DF8071007
:104D700003218DF8051069460546FFF70EFF6C8389
:104D80007CBD0000000002400549096889B201EBC2
:104D9000C000044901EB4000008980B27047000068
:104DA000505C0040006000400549096889B201EB91
:104DB000C000044901EB40008089C0F3090070473E
:104DC000505C0040006000400449096889B201EB72
:104DD000C000034931F8100080B27047505C0040B9
:104DE00000600040FEB505469C46DDE908070C461C
:104DF000002361460A9E0DF013F800210091CDE9D1
:104E0000011623462A46394606F0E2FBFEBD0000A5
:104E1000094810B5D0E91414406E08180BD00822C8
:104E2000064900F055F9054920460422BDE8104026
:104E3000103100F04DB910BD0000F81F2200002015
:104E400070B51B48017801290BD0836841F20E022E
:104E50000021934200D18160D0E90143A34201D1F6
:104E6000017070BD02D9A2EB030201E0A4EB0302C2
:104E70001446C260402A9AB205D940254033403CCE
:104E8000C0E9023403E02344C0E90231A5B20121A4
:104E900001700848C02110442A4603F0D7FB294678
:104EA000012002F0F3FBBDE87040012002F014BCC9
:104EB00000000020D8030020FEE700002DE9FC419F
:104EC0000121022001F0EEFB01268DF80460002490
:104ED0008DF806400327DFF848804FF480758DF881
:104EE000057000958DF8074069464046FFF755FE6E
:104EF00029464046FFF706FF8DF804608DF806400E
:104F00006D008DF8057000958DF8074069464046A4
:104F1000FFF743FE29464046FFF7F4FEBDE8FC815B
:104F2000000402402DE9F041002402F0B9F8104DD0
:104F30000127C5F8A0720026B0466006040EC5F829
:104F4000A472052006F0D8FA02F096F8D5F82002EF
:104F500008B1641CE4B2C5F8A482052006F0CCFABE
:104F6000761CF6B2082EE8D32046BDE8F08100009A
:104F7000008040422DE9F041064602F091F80F4CC6
:104F80000027C4F8A4723D464FF00108F009C4F8A8
:104F9000A0027006060E022006F0AEFAC4F8A48243
:104FA000052006F0A9FAC4F8A472052006F0A4FAB8
:104FB0006D1CEDB2082DE9D3BDE8F08100804042C0
:104FC00070B502F06DF8074C01202060606005208C
:104FD00006F092FA00252560052006F08DFA65603E
:104FE00070BD0000A082404270B502F059F8074C35
:104FF0000020206001256560052006F07DFA25600F
:10500000BDE87040052006F077BA0000A08240425B
:1050100010B5134C2068017A022904D0042902D06B
:10502000062905D015E0FFF7D3FA2068007A11E0D1
:105030004178052909D10178490606D1C07802F0E6
:105040009DFA08480068006A804707480068806841
:105050008047082021680872BDE8104001F0EABAD4
:10506000C8010020D0010020CC01002010B5AA20EA
:1050700000F044FB154C2081AC2000F03FFB608128
:10508000AE2000F03BFBA081B02000F037FBE081B8
:10509000B22000F033FB2082B42000F02FFB6082AE
:1050A000B62000F02BFBA082B82000F027FBE082A6
:1050B000BA2000F023FB2083BC2000F01FFB60839C
:1050C000BE2000F01BFBA08310BD000024020020C6
:1050D000F0B500230A24302537261F4611E000BF13
:1050E000B4EB107F02D905EB107C01E006EB107CDD
:1050F00001F813C001EB430C00015B1C8CF801703C
:10510000DBB29342ECD3F0BD81070CD16421B0FB3C
:10511000F1F201FB120141B94FF4C871B0FBF1F299
:1051200001FB120008B10020704701207047704752
:105130002DE9F041012186B0084601F0B3FA0121C2
:10514000042001F0AFFA4FF400400024DFF8D880CB
:1051500000908DF8044002278DF80770694640469C
:10516000FFF71BFD3E038DF80440012500968DF8E6
:10517000075069464046FFF710FD0121084601F03F
:10518000A9FA0121042001F08DFA8DF8044000965F
:105190008DF8077069462548FFF7FFFC0D210220B6
:1051A00002F09AF902968DF80C4008268DF80D60F1
:1051B0008DF80E5002A8FFF747FC28208DF810004C
:1051C0008DF811408DF812508DF8135004A800F09E
:1051D00015FE0121084601F065FA8DF8044000959E
:1051E0008DF8074069464046FFF7D7FC0021084686
:1051F00002F072F98DF80C408DF80D6002958DF873
:105200000E5002A8FFF720FC06208DF810008DF844
:1052100011408DF812508DF8135004A800F0EEFDE7
:1052200006B0BDE8F0810000000002400008024026
:105230002DE9F0410020FFF77AFF674C0122674912
:1052400063786748002653B1D0F83C52012D0BD04B
:10525000D0F8345245B1D1F83452012D04D0D0F8F1
:105260003C72FF25DFB121E06670A670D0F83C32B9
:10527000012B07D0D0F8340230B1D1F83402012824
:1052800007D098E0E27096E00120FFF750FF02207F
:1052900003E00120FFF74BFF0320E0708BE0D0F824
:1052A0003472012F02D1D1F834720FB1B3B182E060
:1052B00062702670A670E078012804D0022809D018
:1052C000032809D077E0E5700120FFF730FF0320C5
:1052D000BDE8F081E57056E0E57065E0D0F8342275
:1052E00033273AB9D0F83C22012A03D1D1F834222D
:1052F000012A0DD0A670D0F83C22012A2BD0D0F87C
:1053000034020B22B0B3D1F83402012840D052E06D
:10531000A17834A003F0C4FA394800780028A078B6
:1053200007D0322801D2401CA070C0B232280BD066
:1053300041E0962801D2401CA070C0B296283AD114
:10534000E5709720A07001E0E570A7700120FFF7DD
:10535000EEFE0620BCE72078192801D2401C207000
:10536000C0B2192827D1E57027700120FFF7DFFEB2
:105370000420ADE7FFE72078401CC0B220700A2867
:1053800019D3E57022700120FFF7D1FE02209FE7BC
:1053900020781C49401CC0B220700978FF2908D031
:1053A0000A2808D3E57022700120FFF7C0FE012013
:1053B0008EE7192804D00120FFF7B9FE002087E707
:1053C000E5701A2020700120FFF7B1FE0E4880F82A
:1053D0002D6005207CE700006802002000004142AB
:1053E000000040420A0D206B65795F70726573732F
:1053F0005F7374617462795F636E74203A25640030
:105400002D01002034010020201900207CB501214D
:10541000084601F047F901208DF8040000208DF8BE
:10542000060003218DF80510074D4FF480448DF8D8
:105430000700009469462846FFF7AFFB214628463F
:10544000FFF75EFC7CBD0000000002400448817A4A
:10545000044809B1052100E00121016002F032BCDD
:1054600004190020100100202DE9F04389468046F0
:1054700002F00300042101EBC00614461D46970804
:10548000184600F029F8C5F1040008FA00F10F20D1
:10549000E84000EA0900084300F00F0201204FF045
:1054A000E021202C06D2D1F80031A0400343C1F8FE
:1054B000003106E0D1F80431203CA0400343C1F89C
:1054C0000431044800EB87000168B24011430160D9
:1054D000BDE8F08304EF00E0072181430A0205499B
:1054E00008684FF6FF031840034B18431043086049
:1054F000704700000CED00E00000FA0502460020B5
:1055000009B1B2F9BE00C1F1600105E032F9113014
:10551000834200DB1846491CC9B26029F6D37047A4
:105520000246002009B1D2F87C01C1F1600105E01A
:1055300052F82130834200DB1846491CC9B2602969
:10554000F6D37047FEE70246002009B1B2F9BE006B
:10555000C1F1600105E032F91130834200DC1846E8
:10556000491CC9B26029F6D370470246002009B130
:10557000D2F87C01C1F1600105E052F8213083428C
:1055800000DC1846491CC9B26029F6D370472DE9E2
:10559000F74F81B0044600900398884690F8009039
:1055A0004078B9F10C0F05D009FB00F1C80882461C
:1055B00000252CE000EB40004FEA80004FF0060190
:1055C000B0FBF1F0F3E703984FF000062844C778EA
:1055D000009809EB000B380608F0FF01E0B201D596
:1055E000012200E0002200F0EDFC7806641C070EAA
:1055F000A4B2A34505D108F101001FFA80F8009C70
:1056000003E0761CB6B2082EE5D36D1CADB255454D
:10561000D9D3BDE8FF8F00002DE9FC4F88460090EC
:1056200092F800A0517804460AFB01F00321B0FB78
:10563000F1F093460025019024E000BF0BEB05003C
:105640000099C7784FF000060AEB0109380608F008
:10565000FF01E0B201D5012200E0002200F0B2FC1F
:105660007806641C070EA4B2A14505D108F101001B
:105670001FFA80F8009C03E0761CB6B2082EE5D332
:105680006D1CADB201988542D8D3BDE8FC8F0000F7
:105690002DE9F84F0C468A46202100911649804694
:1056A000002501EB421B04F1100900BF1BF8057037
:1056B0004FF000063806E1B208F0FF0001D50122E4
:1056C00000E0002200F07EFC7806641C070EA4B205
:1056D000A14505D108F1010054461FFA80F803E006
:1056E000761CB6B2082EE5D36D1C0098ADB285428B
:1056F000DCD3BDE8F88F0000CD5B010870B504462F
:10570000FFF75EFCEE20FEF791FC2046FEF78EFCD4
:10571000FFF756FCEF20FEF789FCFFF703FC044679
:105720000020FEF76FFCFFF7FDFB05460120FEF7AA
:1057300069FCFFF759FC052005F0CAFE200201B202
:1057400041EA050070BD00000EB5012001F022FA0B
:105750000146204803F0A4F8012001F01BFAA0F54F
:105760004851F03914D001F0E5F81B480168019167
:105770004068029000200090684601F0E3F910B9FB
:1057800016A003F08DF8FEF771FB01F0ABFA0EBD29
:105790005B2001F021F808B120A004E05A2001F0BC
:1057A0001BF810B126A003F07BF82EA003F078F8C8
:1057B0000121080700F082FF012000F021FF01F025
:1057C0004BFB4FF4807001F0A7F801F039FB01F0BA
:1057D000D3F80EBDD0A901086C0200200A0D2020CC
:1057E0002020202020202F215C2A2A2A2A2A205209
:1057F0005443205072657363616C657220436F6E11
:10580000666967206661696C6564202A2A2A2A2AEB
:105810002A2A2A2F215C200A0D0000000D0A2050A0
:105820006F776572204F6E205265736574206F63C9
:105830006375727265642E2E2E2E0A0D0000000014
:105840000D0A2045787465726E616C20526573652F
:1058500074206F636375727265642E2E2E2E0A0D8E
:10586000000000000D0A204E6F206E6565642074F4
:105870006F20636F6E666967757265205254432EA0
:105880002E2E2E0A0D00000030B50246002041F2F7
:1058900021040DE012F8013B80EA032008230504EF
:1058A00002D584EA400000E040005B1EF7D1491EAB
:1058B0000029EFDC30BD03460DE002782A2A03D030
:1058C000202A01D37A2A01D9FF2070472C2A01D13E
:1058D000491EC9B2401C0029EFD1C01AC0B270479E
:1058E00038B50A46054614A11046FDF731FC0446BA
:1058F0000621FFF7E0FFFF2805D02044694600F0AD
:105900001BFA85F8650007212046FFF7D4FFFF2822
:1059100005D02044694600F00FFA85F86600092199
:105920002046FFF7C8FFFF2804D02044694600F056
:1059300003FAE86738BD000024475047474100009C
:10594000F8B50A46064624A11046FDF701FC0546B7
:105950000221FFF7B0FFFF2805D02844694600F078
:10596000EBF986F873000024E01CC1B22846FFF76B
:10597000A2FFFF280AD02844694600F0DDF931195A
:10598000641CE4B281F867000C2CEDD30F2128468B
:10599000FFF791FFFF2805D02844694600F0CCF9B5
:1059A000A6F8740010212846FFF785FFFF2805D0D0
:1059B0002844694600F0C0F9A6F87600112128466F
:1059C000FFF779FFFF2805D02844694600F0B4F9B5
:1059D000A6F87800F8BD0000244750475341000066
:1059E0002DE9F84F0C4682464FF0000835A12046BD
:1059F000FDF7AEFB0546C07903213038C7B2284613
:105A0000FFF759FFFF2805D02844694600F094F9B4
:105A10008AF80000002651E02AA12046FDF798FBF5
:105A2000044600254FF0040B0BEB8500C1B2204665
:105A3000FFF741FFFF283ED02044694600F07CF983
:105A400008EB48020AEB420989F80200052000EB46
:105A50008500C1B22046FFF72EFFFF282BD020443F
:105A6000694600F069F989F80300062000EB85001B
:105A7000C1B22046FFF71FFFFF281CD02044694613
:105A800000F05AF9A9F80400072000EB8500C1B224
:105A90002046FFF710FFFF280DD02044694600F094
:105AA0004BF989F806006D1C08F10100EDB200F019
:105AB000FF08042DB8D3641C761CF6B2BE42ABD3EB
:105AC000BDE8F88F24475047535600002DE9F843AE
:105AD0000A4604466FA11046FDF73AFB0546012130
:105AE000FFF7E9FE42F210764FF06408FF281BD062
:105AF0002844694600F020F907469DF800100A2066
:105B000000F010F9B7FBF0F1B1FBF6F004F8540F18
:105B10004046B1FBF0F2B2FBF0F308FB132308FBA5
:105B200012106370A070543C03212846FFF7C3FE97
:105B3000DFF86891FF283BD02844694600F0FCF864
:105B400007469DF80000801CC1B20A2000F0EAF868
:105B5000B7FBF0F0A0659DF80000801CC1B20A20E0
:105B600000F0E0F8B7FBF0F100FB1170FDF784FDE9
:105B700007469DF80000C0F10600C1B20A2000F0FF
:105B8000D1F8FDF779FD3946FDF74CFB4946FDF7A5
:105B90007FFB074606210A2000F0C4F8A16D4843A8
:105BA000FDF76AFD3946FDF7E5FAFDF7A1FDA065B1
:105BB00004212846FFF77FFEFF2802D0285C84F8E6
:105BC0005C0005212846FFF776FEFF283BD02844DD
:105BD000694600F0B1F807469DF80000801CC1B28C
:105BE0000A2000F09FF8B7FBF0F020669DF8000057
:105BF000801CC1B20A2000F095F8B7FBF0F100FB61
:105C00001170FDF739FD07469DF80000C0F1060050
:105C1000C1B20A2000F086F8FDF72EFD3946FDF7E7
:105C200001FB4946FDF734FB074606210A2000F038
:105C300079F8216E4843FDF71FFD3946FDF79AFAC2
:105C4000FDF756FD206606212846FFF734FEFF28A3
:105C500002D0285C84F8640009212846FFF72BFE57
:105C6000FF2814D02844694600F066F8B0FBF6F12E
:105C70005034E1704146B0FBF1F2B2FBF1F308FBA6
:105C8000132308FB1200A37000F5FA602080BDE822
:105C9000F8830000244750524D430000000070423A
:105CA00038B50A4604461DA11046FDF751FA0546CF
:105CB0000721FFF700FEFF2814D02844694600F0B2
:105CC0003BF8C4F880009DF8000003280AD2C0F118
:105CD0000300C1B20A2000F025F8D4F88010484330
:105CE000C4F8800001212846FFF7E5FDFF2813D006
:105CF0002844694600F020F8C4F884009DF80000AC
:105D0000032809D2C0F10300C1B20A2000F00AF84A
:105D100054F8841F4843206038BD00002447505683
:105D2000544700000246012000E050430B00A1F15F
:105D30000101C9B2F9D170472DE9F04F4FF0000AC7
:105D40008B468046D14655465446564601782D2905
:105D500002D146F00206401C01782C2908D02A29DD
:105D600006D02E290AD030390A290AD300252C461C
:105D7000B00701D508F10108002718E046F0010638
:105D8000401CF10702D0641CE4B201E06D1CEDB2CE
:105D9000401CDBE7E81B401EC1B20A20FFF7C2FF30
:105DA00018F80710303900FB01AA7F1CFFB2AF4280
:105DB000F0D3052C00D905248BF8004000270EE015
:105DC000E01B401EC1B20A20FFF7ACFFEA1902EB4C
:105DD00008014978303900FB01997F1CFFB2A742C6
:105DE000EED321460A20FFF79DFF0AFB0090B10782
:105DF00000D54042BDE8F08F7047704770B50F2165
:105E0000C478027801234FF0E026E4B1124C2468F4
:105E100004F4E064C4F5E064C4F30724C4F10405A9
:105E2000E1404478AC4085780D4025430B4C290176
:105E30001155007800F01F018B40400906EB8000EF
:105E4000C0F8003170BD02F01F008340500906EB1E
:105E50008000C0F8803170BD0CED00E000E400E08F
:105E60000249084302490860704700000000FA0533
:105E70000CED00E0024A1140014302480160704706
:105E800080FFFF1F08ED00E070B52F4D28680178F6
:105E900044784A0606D001F07F00012828D0022865
:105EA0002BD035E0092C06D0052C07D0032C0ED0C2
:105EB000012C14D02CE001F047FE28E0C1787F29A6
:105EC0002ED8817861BB818851BB807A27E0C17868
:105ED00001291DD18088D8B901F052FE17E0C178A0
:105EE000012915D1818899B9407A80060AD40FE03A
:105EF0000B2C0DD101F096FE09E0012C02D0032CF1
:105F000003D005E001F02CFD01E001F04BFE58B19B
:105F10000E492046096849698847032802D018B10C
:105F200008200DE009200BE0094A06200021126834
:105F3000084B92B203EB42025160074A30211180B4
:105F40002968087270BD0000C8010020CC01002043
:105F5000505C004000600040D801002010B40021D7
:105F6000084B0A465FF0000003EBC004401CC0B2BF
:105F700062548028F8D3491CC9B20829F2D310BC56
:105F800000F014B91C2A002000B500218D2000F07B
:105F900051FA0021102000F04DFA0021AE205DF8EA
:105FA00004EB00F047BA00B500218D2000F042FA62
:105FB0000021142000F03EFA0021AF205DF804EB30
:105FC00000F038BA10B57F2816D83F2914D8072317
:105FD000A3EBD10301F00701C1F107040121A140A6
:105FE000064CDBB204EBC000002AC25CC9B201D08F
:105FF0000A4300E08A43C25410BD00001C2A00205E
:1060000070B515460C46064605E0E1B2F0B2012235
:10601000FFF7D8FF641CAC42F7DD70BD70B51546C4
:106020000C46064605E0E1B2F0B20122FFF7CAFFD6
:10603000A41CAC42F7DD70BD2DE9F0431E461746A7
:1060400088460546DDF81C900CE0444606E04A46CA
:1060500021462846FFF7B6FF641CE4B2B442F6D9E5
:106060006D1CEDB2BD42F0D9BDE8F0832DE9FC41D5
:106070000121022000F016FB0121042000F012FB98
:106080000120FFF754F801248DF804400025FF207B
:106090008DF80650444F00908DF8074003268DF888
:1060A000056069463846FEF778FD8DF804404FF4E8
:1060B000F0408DF8065000908DF807408DF805608F
:1060C00069463846FEF769FD37481430018847F6BF
:1060D000FF42114301800021AE2000F0ABF9002106
:1060E000D52000F0A7F90021802000F0A3F90021BD
:1060F000A82000F09FF900213F2000F09BF900212B
:10610000D32000F097F90021084600F093F9002110
:10611000402000F08FF900218D2000F08BF9002144
:10612000142000F087F90021202000F083F90021DD
:10613000022000F07FF90021A02000F07BF900216F
:10614000C82000F077F90021DA2000F073F900216F
:10615000122000F06FF90021812000F06BF900217E
:10616000FF2000F067F90021D92000F063F9002139
:10617000F12000F05FF90021DB2000F05BF9002145
:10618000302000F057F90021A42000F053F900213D
:10619000A62000F04FF90021AF2000F04BF9FFF7E7
:1061A000DDFEBDE8FC8100000004024070B5114E28
:1061B000002400BF04F1B000C0B2002100F03AF9A1
:1061C0000021084600F036F90021102000F032F9D5
:1061D0005FF0000506EBC5000121005D00F02AF923
:1061E0006D1CEDB2802DF5D3641CE4B2082CE1D314
:1061F00070BD00001C2A002070B5114E022400BFA3
:1062000004F1B000C0B2002100F014F900210846EA
:1062100000F010F90021102000F00CF95FF00005EB
:1062200006EBC5000121005D00F004F96D1CEDB224
:10623000802DF5D3641CE4B2062CE1D370BD0000C0
:106240001C2A00202DE9F04F00271E460C468246EE
:1062500088462A2B04D0203A02F0FF09002542E0AC
:10626000303A02F0FF09002510E00C2E04D0102E69
:1062700008D02A2E0AD011E0204909EB490001EB91
:1062800080000AE01E4901EB091006E0C9EBC900D5
:106290001C4900EB400001EB4000475D4FF0000B54
:1062A000380601D5099A02E0099878B10022214602
:1062B0005046FFF787FE7806641C070EE4B22A2ECC
:1062C000A4EB080004D0B04211D003E00122EEE7B5
:1062D00018280CD00BF1010000F0FF0BBBF1080FE8
:1062E000DED36D1CEDB2B542BFD3BDE8F08F0AF12D
:1062F0000100444600F0FF0AF3E70000695101087D
:10630000DD5501089B4F0108F8B516460D460446B9
:10631000012714E07A2C02D900241035EDB23A2D71
:1063200003D900242546FFF719FE00973278102381
:1063300029462046FFF786FF0834E4B2761C307801
:106340000028E7D1F8BDF8B516460D4604460127EA
:1063500014E07C2C02D900240C35EDB23E2D03D97B
:1063600000242546FFF7FAFD009732780C232946D2
:106370002046FFF767FFA41DE4B2761C30780028A2
:10638000E7D1F8BDF8B516460D460446012714E0DE
:10639000702C02D900241835EDB2322D03D9002417
:1063A0002546FFF7DBFD009732782A232946204651
:1063B000FFF748FF1034E4B2761C30780028E7D1AC
:1063C000F8BDF8B515460E46044601272BE07A2C99
:1063D00002D900241036F6B23A2E03D900242646FC
:1063E000FFF7BCFD2A783A2A01D1A41EE4B210239B
:1063F000314620460097FFF725FF28783A280FD12D
:10640000A41FE4B2009715F8012D10233146204651
:10641000FFF718FFA41D15F8010FE4B23A2806D0C3
:106420000834E4B26D1C28780028D0D1F8BDA41D32
:10643000F7E70000074A138803F47F430343138000
:106440000548416000210160816001218160016097
:106450004160704714040240AC82404210B50F4CBA
:106460002068007A022811D004280FD0032804D015
:10647000052802D0072805D008E0FEF703F92068B8
:10648000007A04E006480068C06880470820216858
:106490000872BDE8104000F0CDB80000C80100202F
:1064A000CC010020064B521C520803EB410105D0E1
:1064B00031F8043B20F8023B521EF9D1704700002E
:1064C00000600040F0B5012189B0C825084600F001
:1064D000F5F80121084600F0E5F802208DF80400E7
:1064E000002400908DF8064001268DF807600320F7
:1064F0001C4F8DF8050069463846FEF74EFB012219
:1065000011463846FEF7ECFB17481849EF060068BD
:10651000ADF81040B0FBF1F0401E6900ADF8080086
:106520000391ADF80A4002A9384601F047FD60200A
:10653000ADF81400ADF81C40ADF8166005A938465A
:10654000069501F013FD0821384601F02DFD0021CC
:10655000384601F0F7FC0021384601F0FDFC09B097
:10656000F0BD000000000240A401002000350C0036
:1065700002490A6842EA80000860704700700040E3
:1065800009490028086806D040F001000860086842
:1065900040F4804005E020F480400860086820F066
:1065A0000100086070470000007000400A4B1A6844
:1065B00022F0030202431A600848026842F0040213
:1065C0000260012905D020BF016821F004010160AB
:1065D000704730BFF8E700000070004010ED00E0A9
:1065E000034A0146002052680A4200D00120704749
:1065F00000700040014908617047000000000E4231
:10660000014908627047000000000E4201494862DB
:106610007047000000000E42044A116821F4C05186
:10662000014321F00C001060704700000070004032
:10663000704700000C4810B590F82C10002000F0B6
:10664000CDFF0A480068007A082802D0092809D03E
:1066500006E007494FF48050088006491020088062
:10666000002010BD012010BD98000020C8010020AE
:10667000D6010020D801002010B5012001F002FF52
:106680000648012101600021054A0160031D1960CF
:106690004FF4E05111800160002010BD405C0040CB
:1066A000D4010020044A0029116801D0014300E010
:1066B00081431160704700001C380240044A0029E1
:1066C000116801D0014300E0814311607047000070
:1066D00024380240044A0029116801D0014300E037
:1066E0008143116070470000203802400D48016866
:1066F00041F4807101600B4908310A680A4B1A4065
:106700000A600268094B1A400260026822F4802283
:106710000260086820F47D0008600020091D086000
:1067200070470000003802400CC0FF88FEFFFEEEFC
:1067300030B5254A1168A2F1040411F00C034FF49E
:10674000004105D0042B09D0082B09D00C2B09D00F
:106750002368C3F342335B1C994018E01B4916E0E1
:106760001B4914E01168136801F47011194C03F40B
:10677000400304EB91410978012404EB935314681E
:1067800014F4803F1DD0124C6143B1FBF3F1016062
:1067900011680F2303EA11110E4B09335C5C016889
:1067A000E14041601468072505EA14241C5D21FAC4
:1067B00004F48460126805EAD2229A5CD140C16078
:1067C00030BD024CE0E70000083802400024F4002D
:1067D00000127A00DA010020014600204A09012A4D
:1067E00009D0064A126801F01F0101238B401342B1
:1067F00000D001207047014A343AF3E734380240B0
:106800000248006800F00C007047000008380240A1
:10681000034A116821F0F001014311607047000044
:1068200008380240024900220A70087070470000D0
:1068300002380240014908607047000000004742EA
:10684000024900220A700870704700003538024083
:10685000014908607047000080064742034A1168FA
:1068600021F4604101431160704700000438024088
:10687000034A116821F4E061014311607047000090
:106880000838024003490A6822F4605242EAC00014
:1068900008607047083802400149086070470000EE
:1068A000D8064742C0F30141032907D1094A1168BC
:1068B00021F0C04300F0C041194311600549343153
:1068C0000A6822F440320A600A6800F44030024349
:1068D0000A60704700380240034A116821F0030142
:1068E000014311607047000008380240010901EBC4
:1068F000810100F00F0000EB4100C0B270470021A1
:1069000003E0491C0A38C9B2C0B20A28F9D2090703
:1069100040EA116070470000C0F3100040F08000B2
:10692000C1430348026802F08002114301607047CE
:106930000C28004010B501210807FFF7BFFE012019
:10694000FFF75EFE0120FFF77BFF4920FFF744FFC2
:106950000028FAD04FF48030FFF7A4FF0548FF214C
:1069600041607F2101600120FFF796FFBDE81040E4
:1069700000F072BA6C0200200149002000F072B8E9
:106980008002002008B5002000900C4801684906EC
:1069900012D44FF0FF31016043140168009A01F0F6
:1069A0004001521C00929A4201D00029F5D00068A3
:1069B000400601D4002008BD012008BD0C2800407D
:1069C0000248016821F08001016070470C280040F6
:1069D00010B5234C0200214BE17820881AD0491CC5
:1069E000E170FEF791FB10B1A078012810D0A078DB
:1069F000185CE178814228D90120E070A178491C17
:106A0000C9B2A1700C2920D9A0702088401C1BE0BD
:106A10001D20EEE7491E11F0FF01E17015D1A178AC
:106A2000491EA170FEF770FB10B1A078012805D0B7
:106A3000A078185CE070A07810B106E01D20F9E79E
:106A40000C20A0702088401E2080E278A178208849
:106A500000F052F82071002010BD00004CA8010881
:106A60008C01002010B50C460E4909680E4A1140F1
:106A70000A0CE270C1F30423637001F03F03A370BA
:106A8000C1F34231217000280BD11046FFF72EFFD1
:106A9000E0706078FFF72AFF6070A078FFF726FFAC
:106AA000A07010BD042800403FFFFF0010B50C4649
:106AB0000F4909680F4A1140C1F305422270C1F322
:106AC0000623637001F07F03A370402303EA1141A2
:106AD000E17000280BD11046FFF708FF20706078A6
:106AE000FFF704FF6070A078FFF700FFA07010BDF3
:106AF000002800407F7F7F0030B56424B0FBF4F5B0
:106B0000EBB204FB1500132B01D96430C0B200EBCB
:106B100090040723B4FBF3F503FB1544084D22440E
:106B20000D44800715F8015C2A4492B203D1032971
:106B300001D2521E92B2B2FBF3F003FB102030BD23
:106B400040A8010870B5124D04460026CA202860EE
:106B500053202860FFF716FFA8B10D481C380168C4
:106B600021F040010160016822681143016008487A
:106B7000A168143801600168A28841EA02410160FD
:106B8000FFF71EFF0126FF202860304670BD000081
:106B90002428004008B5034901EB800000900068FC
:106BA00008BD00005028004070B50C460100607818
:106BB0004FF000062AD0FFF799FEA078FFF796FE67
:106BC000A078E17840EA014560782178000240EA47
:106BD00041300543194CCA20206053202060FFF744
:106BE000D1FE78B116480540144820380560FFF7FB
:106BF000E7FE12481C380068800602D400F02CF929
:106C000000B10126FF202060304670BDC10603D5CB
:106C100020F010000A306070E078FFF770FE050485
:106C20006078FFF76CFE45EA0025A078FFF767FE65
:106C30000543207845EA4035CCE700002428004091
:106C40003FFFFF002DE9F041244F0C4602004FF0BA
:106C5000000620783A6831464FEA426204D0002AA2
:106C600015DAFFF743FE13E0002A00DBE170FFF7BF
:106C700046FE05046078FFF742FE45EA0025A0784D
:106C8000FFF73DFE0543E07845EA00450AE0E17084
:106C9000A078217840EA01456078E178000240EA76
:106CA000014005430D4CCA201C3420605320206055
:106CB000FFF768FE68B10A480540084808380560D3
:106CC000FFF77EFE3868800602D400F0C5F800B1F8
:106CD0000126FF2020603046BDE8F08108280040F2
:106CE0007F7F7F0010B51E4801F0DAFD1D490020AE
:106CF000C870FFF7A7FF43F2F024002828D01AA09D
:106D000001F0CEFD00F09CF82146012000F0C8F80B
:106D10001348483001F0C4FD1DA001F0C1FD114928
:106D20000020091DFFF740FF002815D020A001F02A
:106D3000B7FDFFF721FE2146012000F0B1F8012048
:106D4000FFF728FF0146BDE8104023A001F0A8BDD1
:106D500027A001F0A5FDDBE72FA001F0A1FDEEE7E4
:106D600058A801087C0200200A0D3E3E2021212067
:106D7000525443205365742054696D6520737563C4
:106D8000636573732E202121203C3C0A0D00000016
:106D90002020506C656173652053657420576565CC
:106DA0006B446179202830312D3037290A0D0000DD
:106DB0000A0D3E3E20212120525443205365742069
:106DC0004461746520737563636573732E2021219C
:106DD000203C3C0A0D0000000A0D20205254435F65
:106DE000424B505F445231203A2025780A0D000072
:106DF0000A0D3E3E20212120525443205365742029
:106E000054696D65206661696C65642E20212120BE
:106E10003C3C0A0D000000000A0D3E3E20212120CE
:106E2000525443205365742044617465206661693F
:106E30006C65642E202121203C3C0A0D00000000DE
:106E400010B503490020FFF731FE0248006810BD6D
:106E50007C0200200428004018B500200F49009053
:106E6000CA200860532008600C481838026822F0D5
:106E7000A0020260C4130268009B02F020025B1CA7
:106E80000093A34201D0002AF5D00068800601D506
:106E9000012000E00020FF220A6018BD24280040E5
:106EA00008B5034A02EB80000090016008BD0000B5
:106EB000502800402DE9FC474448434C002590F8F9
:106EC0007310A77A866D026E4FF00209052F31D23A
:106ED000DFE807F0300353617100256303292BD1EC
:106EE00056B34AB380461046FCF7C6FB0746304609
:106EF000FCF7C2FB364E824631463846FCF7C8F9ED
:106F0000206631465046FCF7C3F9606698F85C008D
:106F1000607698F86400A076E58353200CF002F8C0
:106F2000606BA06384F80A9029462920CDF80450AC
:106F30000CF0DAFBBDE8FC87E07A092813D1607A0F
:106F4000012810D120237F22102118460095FFF739
:106F500073F8204890F82700012808D01E4A102115
:106F60002020FEF714FB1D4901200870E2E71021E4
:106F70001BA20846FFF7C8F9F5E7032905D126B19A
:106F80001AB154200BF0CEFFD4E71346324618A0B6
:106F900001F086FCCEE741200BF0C4FF01A92920B7
:106FA0000CF096FB01992920491C01910CF09CFBE7
:106FB00084F80A90BEE750200BF0B4FFA5720DF0E4
:106FC000C9FD0020E16AB3E7240100203C31002024
:106FD00000247449201900201C8401089302002019
:106FE0004C6F636174696E6720536174652E000095
:106FF0000A0D20677073782E6669786D6F6465205E
:107000002025642020677073782E6C617469747514
:1070100064653A2025642020677073782E6C6F6E4B
:107020006769747564652025642000000D480E4969
:1070300002680A600D4B42681A600D4B82681A6044
:107040000C4BC2681A600269CA60084A41690C3276
:107050001160074A81690C3211600649C0690C3120
:1070600008607047F8010020000002400004024060
:1070700000080240000C02401CB54FF480700090E4
:1070800000208DF8040003218DF805108DF807000D
:1070900069460248FDF781FD1CBD00000004024066
:1070A0001CB54FF48070009001208DF80400002082
:1070B0008DF8060003218DF805108DF8070069464C
:1070C0000148FDF76AFD1CBD000402400748006846
:1070D000052809D106480168491C0160062903D129
:1070E00000210160FDF7ACBE7047000010010020D8
:1070F0003C00002010B5044C00202060062000F069
:10710000AFF90120206010BD9002404270B5040329
:10711000FFF7F0FF00F092F80B4D002028602020D0
:1071200000F09EF9C4F3074000F09AF9C4F3072079
:1071300000F096F9E0B200F093F901202860BDE874
:10714000704000F07BB800009002404200F018B997
:1071500010B5064C00202060B92000F081F9012014
:107160002060BDE81040032004F0C6B99002404200
:107170002DE9F041114E0746002015460C46C6F891
:107180009002032000F06CF9C4F3074000F068F9A6
:10719000C4F3072000F064F9E0B200F061F90024C4
:1071A00005E0FF2000F05CF93855641CA4B2AC4245
:1071B000F7D30120C6F89002BDE8F08100004042FC
:1071C00070B50D4C00252560902000F049F9002095
:1071D00000F046F9002000F043F9002000F040F9EB
:1071E000FF2000F03DF945EA0025FF2000F038F9C6
:1071F00028430121216070BD9002404210B5064C29
:1072000000202060052000F02BF9FF2000F028F975
:107210000121216010BD00009002404210B5064CD3
:1072200000202060AB2000F01BF901202060BDE8A9
:107230001040032004F060B9900240422DE9104054
:10724000FFF7DCFFC007FBD110BD00002DE9F05FA8
:10725000C1F30B060F0BC6F58054884682461546CF
:10726000A24200D81446DFF87C9039038B464FF4D5
:1072700080521C48FFF77CFF002006E0321819F806
:107280000210FF2903D1401C80B2A042F6D3A042D5
:1072900022D23846FFF73AFF00204A4606E000BFF8
:1072A0001AF800108319401CD15480B2A042F7D3C1
:1072B00059464FF480520B4800F016F8A5420FD003
:1072C000281BA244A0447F1C002685B24FF48054A2
:1072D000A542CAD82C46C8E7224641465046EBE7AD
:1072E000BDE8F09F1C1A00202DE9F0410746C8B206
:1072F000C0F580740E461546A24200D814464FF4DD
:10730000807822463146384600F00EF8A54208D073
:10731000281B2744264485B24446A542F1D82C4672
:10732000EFE7BDE8F08100002DE9F04115460C467D
:107330000746FFF7DFFE114E0020C6F8900202203C
:1073400000F08EF8C4F3074000F08AF8C4F3072079
:1073500000F086F8E0B200F083F8002404E0385D25
:1073600000F07EF8641CA4B2AC42F8D30120C6F849
:107370009002BDE8F041FFF761BF0000000040420D
:107380002DE9FC4101210846FFF78CF90121080392
:10739000FFF7A0F92020009002208DF804000325BB
:1073A0008DF8055000262C4F8DF8066001248DF8CD
:1073B000074069463846FDF7F0FB402000906946DB
:1073C0003846FDF7EAFB8020009069463846FDF715
:1073D000E4FB8DF8044010208DF8066000908DF8D5
:1073E00007408DF8055069463846FDF7D6FB052263
:1073F00011463846FDF774FC052206213846FDF794
:107400006FFC052207213846FDF76AFC1348018806
:107410000180018841F400710180018841F480718C
:107420000180018841F00401018001880180018808
:1074300041F002010180018841F0010101800188D1
:10744000018001880180018841F040010180FF2016
:1074500000F006F8BDE8FC81000002400030014069
:1074600000210C4A03E0491CC9B2C82909D8138974
:107470009B07F8D59081002005E0401CC0B2C828C9
:1074800001D9002070471189C907F6D09089C0B290
:1074900070470000003001400D490A8822F0380290
:1074A0000A8060B101280CD0022808880DD040F075
:1074B00038000880088840F040000880704708883D
:1074C000F7E7088840F01000F3E740F01800F0E715
:1074D000003001407047000010B58A0721F0030416
:1074E0000649130F21440F228C689A4094438C6004
:1074F0008A68984002438A6010BD00000000014085
:1075000005490028486802D040F0010001E020F061
:107510000100486070470000000001400A4890F8F0
:1075200025100A4831B1012906D000218183417A12
:1075300021B105E01021F9E71F21F7E7012181833F
:10754000818B03A001F0ACB9201900202401002098
:1075500053656E645F746F5F676F746F5F6C6F7796
:10756000706F7765723A2564200D0A00024920F099
:107570000700086070470000505C0040F0B50D49FE
:107580000D4D48F68F770B78002148F2800C09E00A
:10759000CEB205EB860422683A40324342EA0C023E
:1075A0002260491C9942F3D3034940F080004C31DA
:1075B0000860F0BDE8000020005C0040054A21F0B2
:1075C0000101126892B202EBC000034A02EB4000D4
:1075D00081607047505C0040006000400D4A1268B6
:1075E0003E2992B202EBC0000B4A02EB400209D9DD
:1075F0004809C90601D1401E80B24FF4004141EA5A
:10760000802004E04808C90700D0401C80021060B8
:1076100070470000505C00400C6000400A4A02EBDA
:10762000800210684BF68F7300EA0300CB0401D58B
:1076300080F48050890401D580F4005048F2800124
:107640000843106070470000005C0040064901EBF1
:10765000800108684BF68F72104080F4405048F269
:107660008002104308607047005C0040054A21F02A
:107670000101126892B202EBC000034A42F81010F6
:1076800070470000505C004000600040044A1268EF
:1076900092B202EBC000034A02EB40004160704727
:1076A000505C0040006000400A4A02EB8002106813
:1076B00048F6BF7300EA0300CB0601D580F0100046
:1076C000890601D580F0200048F28001084310604F
:1076D00070470000005C0040064901EB800108682B
:1076E00048F6BF72104080F0300048F2800210432C
:1076F00008607047005C0040044A02EB800210689A
:1077000048F68F131840084310607047005C004033
:1077100010B50120FFF78EF82120FFF75DF8002853
:10772000FAD00120FDF7F6F90120FDF7E5F9012077
:10773000FDF70CFA0120FFF7CFF800BFFFF760F864
:107740000428FBD10020FFF763F80020FFF79AF828
:10775000BDE810400020FFF78BB8000070B514465C
:107760000D460646FEF7C2FF0020FDF7EFF90020A8
:10777000FDF7C2F90020FDF7CDF90120FDF7D8F99A
:1077800001210807FEF79AFF4FF4C050FEF744FFAF
:107790001020FEF725FF0028FAD13046FFF75EF8EB
:1077A0000020FFF799F800BFFFF72AF80028FBD167
:1077B00015B18020FFF72CF80020FFF73BF80020E0
:1077C000FFF730F8002C04D1BDE870400020FFF72F
:1077D0003FB870BD0CB500202C49019000900A689C
:1077E00042F480320A604FF4A0630A6802F4003267
:1077F0000092019A521C0192009A12B9019A9A427F
:10780000F3D10A6892033FD5012000902048026816
:1078100042F004020260026842F002020260026862
:1078200042F00102026019482430026842F080529E
:107830000260C214174802604268D206FCD41348A2
:107840000830026802600268026002680260026832
:1078500022F47D020260026842F4110202600A68AA
:1078600042F080720A600A689201FCD5016821F03A
:1078700003010160016841F0030101600168C1F387
:1078800081010329FAD10CBD00900CBD00380240E3
:10789000003C02400070004010B501210846FEF790
:1078A00019FF4FF480242046FDF7B8F80549082059
:1078B0000C60487101208871BDE810400846FDF752
:1078C000C3B80000100000200121C805FEF7F6BE75
:1078D00070B516480068174D81B2154800EB41019C
:1078E000098989B200EB41042868017A09290FD07F
:1078F0002178017061784170A088FCF7F3FB29685A
:1079000048802089FCF7EEFB29688880A089C88020
:10791000286801210172C08828B1FCF705FFBDE885
:107920007040FEF787BEFEF7AFFAF8E7505C004004
:1079300000600040C8010020012080F31388BFF3DD
:107940004F8F05480168054A01F4E0611143016069
:10795000BFF34F8FFEE700000CED00E00400FA05D6
:107960002DE9F04134480068017811F07F0102D020
:10797000022905D05DE0417A01F0DF01417247E064
:107980004188002955D10179F1BB41792C4D21F075
:1079900080040A06294B55F8242003D5C2F30112AE
:1079A000120102E0C2F3013212031E782346A642FE
:1079B0003FD94AB3807A38B308060DD555F824006C
:1079C000C0F3011001281DD11846FCF775FD2046B3
:1079D0003021FFF769FE15E005EB84063068C0F33F
:1079E000013001280ED14BF68F7748F2800894B110
:1079F0001846FCF74FFD3068384080F4405040EAAC
:107A0000080030600F4800E013E0006840698047DC
:107A10000020BDE8F0810C4890F82C100020FFF702
:107A2000DDFD2868384080F4405040EA08002860B6
:107A3000E8E70220EDE70000C8010020E800002090
:107A4000005C0040D00100209800002010B5074CD9
:107A500030B1074800680068804720680A3010BDD0
:107A6000216801200882002010BD0000C80100200C
:107A7000D0010020054A13685A8A10B108681044E2
:107A800070478888801A188200207047C80100203B
:107A900010B5074C30B107480068806880472068FF
:107AA0000C3010BD216801200882002010BD0000AC
:107AB000C8010020D00100201F4910B5096860B13D
:107AC0001E48002202800A7853060AD002F07F0284
:107AD000012A16D0022A16D001E0022008820020D6
:107AE00010BD497A8A06027802D542F0020201E00E
:107AF00002F0FD0249060270D1B210D401F0FE017D
:107B00000FE00E4810BD4A7902F00F0113060C4A2F
:107B100052F8211007D5C1F3011106E0017841F0B8
:107B20000101017003E0C1F301310129F6D00548DC
:107B3000006800698047E4E7C8010020C401002014
:107B4000005C0040D00100200A4810B500680A4AD5
:107B5000C1785278914203D882780AB982880AB1F2
:107B6000022010BD817205480068406880470020EF
:107B700010BD0000C8010020E8000020D001002056
:107B8000064810B50068417A41F02001417204486E
:107B90000068C0698047002010BD0000C8010020B7
:107BA000D001002070B51B4803681B48597921F0AB
:107BB000800500EB85000C06046821F0800203D5E7
:107BC000C4F30114240102E0C4F301342403134D6F
:107BD0002D7895420FD95A886AB964B19A7A52B110
:107BE0000906016848F2800207D548F6BF731940BC
:107BF00081F0100106E0022070BD4BF68F73194032
:107C000081F4805111430160054800688069804714
:107C1000002070BDC8010020005C0040E80000208A
:107C2000D001002010B50E4C0E4A20681268C178B1
:107C300092694079904721688A7A22B118B9087907
:107C400008B9887808B1022010BD07480068C068EC
:107C5000804720684179C172C1780173002010BD4E
:107C6000C8010020CC010020D001002010B5012166
:107C70000F20FEF717FD01210807FEF71FFD012168
:107C80000846FEF727FD4FF40060FEF7C5FC102004
:107C9000FEF7A6FC0028FAD1BDE810404FF4405191
:107CA0004FF00060FEF7E6B84FF0E02104280869C5
:107CB00003D020F004000861704740F00400FAE7A8
:107CC00070470000104810B5016841F480710160F0
:107CD0000D4908310A680D4B1A400A6002680C4BC6
:107CE0001A400260026822F480220260086820F4D0
:107CF0007D000860091D00200860FFF76BFD064944
:107D00000448086010BD0000003802400CC0FF8825
:107D1000FEFFFEEE0030000808ED00E0F8B5534E1F
:107D20003088C0077BD05249524C00250A78A08A7F
:107D3000032A02D0042A0BD011E0401C80B2A0829A
:107D4000B0F5967F0BD1A5820D70FEF707F906E01E
:107D5000C8280AD006F02AFEA08A401CA082464805
:107D600001270078032805D007E00D7006F01EFEFD
:107D7000A582F1E741480078D8B12571A581208915
:107D8000642801D0401C20813D49A069884201D06F
:107D9000401CA0616089A0F56851983901D0401C51
:107DA0006081A078D0B3401E10F0FF00A07044D0D6
:107DB00046E0A089401C80B2A081217999B10129B7
:107DC0001ED002292CD00329D9D10A28D7D1A581C8
:107DD0002423462218213A200095FEF72DF9FEF7BC
:107DE000E5F92571CBE7B0F5AF7FC8D1A581254A6C
:107DF00018213A20FDF7CBFBFEF7D8F92771BEE733
:107E00000A28BCD1A5812423462218213A200095B6
:107E1000FEF712F9FEF7CAF902200CE010E01FE0AD
:107E20001428ACD1A581174A18213A20FDF7AFFBE1
:107E3000FEF7BCF903202071A1E70020FCF706F94A
:107E40001148007802280AD1E078401CC0B2E070E6
:107E5000642804D10D48E5700168491C0160277051
:107E6000308820F001003080F8BD00001004004090
:107E7000250100208C0200202D0100202019002067
:107E8000905F0100018401082E01002058010020AC
:107E900008480188C9070BD007490A8842F4004204
:107EA0000A80018821F001010180002000F026B83D
:107EB0007047000010080040AC0200200D4A136813
:107EC00043F0040313600C4A1060101F01800A483D
:107ED0002038018841F00101018007482C380188D1
:107EE00041F00101018002231E2203210120FDF740
:107EF000BBBA0000243802402C080040074938B1C2
:107F0000064A002024321060088840F0010002E098
:107F1000088820F001000880704700000008004039
:107F200010B5064C2088C00702D00548006980477C
:107F3000208820F00100208010BD000010140040B7
:107F4000E80200200029018802D041F0800101E010
:107F500021F08001018070470029018802D041F0A2
:107F6000010101E021F001010180704730B5028C70
:107F700022F010020284038C028B0C7822F4E0457C
:107F80004FF6FF7202EA04242C4323F020050B89EC
:107F900002EA03132B434D88496802EA05121A438B
:107FA00081630483028430BD028B4FF6FF7322F499
:107FB000006203EA01211143018370470288B0F196
:107FC000804F08D00F4B984205D00F4B984202D0FB
:107FD0000E4B984203D122F070034A881A430C4B8F
:107FE000984206D00B4B984203D022F440730A8982
:107FF0001A4302804A68C262098801850121818290
:10800000704700000004004000080040000C0040E1
:10801000001000400014004070B50C4605460121D8
:108020002020FEF74BFB0E480560001F04800C4823
:108030002038018841F001010180018841F04001B0
:10804000018007482C38018841F001010180BDE81A
:10805000704002232C2203210846FDF705BA0000D8
:108060002C1400402DE9F047594C2078002810D0FE
:1080700000252570607905280DD0401C6071608A4C
:10808000142873D0401C6082A07932286FD0401C25
:10809000A071BDE8F087FDF7CBF8607007F0A8FE8F
:1080A000657065710CF056FD4A4ED6F800024A4FD5
:1080B000DFF828914FF00108012808D0E581208AD7
:1080C00000B3401E0004000C208214D01AE0E189A5
:1080D00079B143A000F0E4FBE089401E0004000CED
:1080E000E08106D187F82D80052007F081FEC6F8D3
:1080F000B882258206E00620FCF7A2F889F8005035
:10810000C6F8B852D6F800024FF01E0A012897F8B8
:1081100029000CD00128B2D100F0EFF987F82950DE
:10812000C6F8B85297F82D0001282AD02DE0D0B912
:1081300097F82C00012802D199F80000C0B107205F
:10814000FCF77EF8012002F06DFA00F0B7F9FF208D
:1081500007F04EFEFDF702FFFDF725FFC6F8B882D7
:1081600026A000F09DFB87F8298088E724E027E01F
:10817000A4F80EA00720FCF763F8012002F052FAE1
:10818000EEE787F82D50A4F810A099F80000022817
:1081900002D0012806D00BE0387848B90220FCF75D
:1081A0004FF805E00020FCF74BF8002002F03AFA07
:1081B000FF2007F01DFE62E76582FBF73EFF63E7E5
:1081C000A571FEF73DFEBDE8F047FEF7D5BB000008
:1081D0008C02002000004042201900202D010020C8
:1081E0000D7573625F64656C61795F74696D65724A
:1081F0005F706F7765726F6E3A2564000D0A2063B9
:1082000068616E676520746F203332206D687A0074
:108210000D4A136843F0020313600C4A1060101FEC
:1082200001800A482038018841F001010180074897
:108230002C38018841F00101018002231D22032115
:108240000120FDF711B90000243802402C04004041
:1082500010B540F225510F4800F08FF8012814D1D5
:108260000C48001D00880C4BC4B21888B0F5487F3C
:108270000CD20A4A0021116010B90120FFF73EFE1E
:10828000074918880C54401C188010BD40F4004069
:10829000FAE7000000440040AC020020240800403F
:1082A00090320020F0B50D460646012187B0084601
:1082B000FEF7F8F90820049002208DF8140003203E
:1082C0008DF8150000248DF816400120224F8DF8FE
:1082D000170004A93846FCF760FC01214804FEF7AA
:1082E000EDF9072203213846FCF7FAFC0095ADF8BA
:1082F00008400420194DADF80440ADF80A00ADF86F
:108300000640ADF80C406946284600F055F8134881
:108310000C30018841F480710180018841F0200116
:1083200001800223262203211846FDF79DF8012132
:10833000284600F017F8102E0BD040F67F4163203E
:10834000FFF7BCFD064804800020FFF7D7FD07B00B
:10835000F0BD40F23F61F2E70000024000440040FF
:10836000AC0200200029818902D041F4005101E0D3
:1083700021F4005181817047704730B501F01F0230
:1083800001240025C1F3421304FA02F2012B0FD09D
:10839000022B0FD0838A4FEA11210088134204FA7E
:1083A00001F400EA040001D000B10125284630BDE7
:1083B0008389F0E7038AEEE77FB50446008A0D461D
:1083C00020F44051E88808432082A08941F20C61E2
:1083D0008843A9882A8911436A8902431143A181EC
:1083E000A08A20F44071A8890843A0826846FEF75D
:1083F0009FF91B48844201D1039800E00298A189AB
:108400000904002900EBC00101EB0010296802DA21
:108410004FEA410101E04FEA8101B0FBF1F0642233
:10842000B0FBF2F14FEA01114FEA11136FF018059A
:108430006B4300EB8300A3891D044FF0320306D584
:1084400003EBC000B0FBF2F000F0070005E003EB27
:108450000010B0FBF2F000F00F00084320817FBD58
:10846000003801400649054B4A689854521CA2F551
:1084700080504A600E3800D148607047D803002011
:108480000000002000B10120FFF73AB84FF480202F
:10849000FCF7C4BA06480549022201600A72064A7E
:1084A0000449C0E9011208680047000004190020CF
:1084B000C801002098000020EC00002038B54FF4DF
:1084C000A060FDF7CDFC14208DF8000002208DF88F
:1084D000010000248DF8024001258DF80350684604
:1084E000FDF78CFC2A208DF800008DF801408DF8F6
:1084F00003506846FDF782FC38BD38B54FF4A060E4
:10850000FDF7AEFC14208DF8000002208DF801006C
:1085100000248DF802408DF803406846FDF76EFC9C
:108520002A208DF800008DF801408DF80340684640
:10853000FDF764FC38BD000070B5134D2868134C7E
:1085400060806088124E31880840800507D54FF65C
:10855000FF5028602078401C2070FEF7B7FD60882F
:1085600031880840000401D5FBF7C2FD60883188DE
:108570000840400507D54FF6FF30286005484068A1
:10858000BDE87040004770BD445C004040000020E2
:10859000D401002098000020FFF7CEBF054900203D
:1085A000086005494FF4064008800249091F086029
:1085B00000207047445C0040D401002070B500F0FA
:1085C0007F060D463046FCF7EFFB04463046FCF7CD
:1085D000DBFB014622462846FDF764FF204670BDBE
:1085E0002DE9F04100240F460646A046134D1CE03D
:1085F000315D13A000F054F92888010414D441041B
:10860000315D04D50A290DD140F4004013E00D2955
:108610000FD0C0F30D020B4B401C80B29954288040
:10862000C72801D9A5F80080641CBC42E0D3BDE88E
:10863000F08140F480402880F6E700001802002016
:108640002563000054190020FEE70000084B10B518
:10865000521C520803EB410108D003784478801C77
:1086600043EA042321F8043B521EF6D110BD00005A
:1086700000600040114910B50A68212802D0202866
:1086800007D018E0107800F07F00212813D10C49A2
:108690000AE01078202300F07F010A48212901D048
:1086A000037008E00849037029B1002091615082ED
:1086B0008847002010BD022010BD0000C801002026
:1086C000E58600087C000020598800080149FFF772
:1086D000D1B90000900000200149FFF7CBB900009C
:1086E0008800002008B10448704704490820096840
:1086F000088200207047000080000020C801002090
:1087000005490968C978042901D900207047034A3E
:1087100002EBC101FFF7AEB9C8010020C80000207C
:1087200009B9012801D902207047002070470000D4
:1087300007490968097801F07F01212903D102283E
:1087400003D0222801D0022070470020704700008B
:10875000C8010020334810B50068334A00218172F7
:10876000D2794272C1720846FEF700FF4FF40071E1
:108770000020FEF7C1FF10210020FEF795FF4021E9
:108780000020FEF71BFF80210020FEF76FFF002076
:10879000FBF7A4FE254890F82C100020FEF71EFFE2
:1087A0000020FEF753FF00210120FEF7A5FFC021A6
:1087B0000120FEF75BFF20210120FEF775FF00215D
:1087C0000120FEF72BFF4FF4C0610220FEF794FF5B
:1087D0004FF480710220FEF749FF00210220FEF7CE
:1087E0001DFF20210220FEF75FFF00210320FEF77E
:1087F00083FF4FF488710320FEF7E0FE4021032041
:10880000FEF7ECFE4FF440510320FEF707FF002176
:108810000320FEF749FF0020FEF7B0FE04490120C7
:10882000086010BDC8010020B64B01089800002068
:10883000100100200348807A002802D00249052058
:10884000086070470419002010010020014904202D
:10885000086070471001002008B1044870470449BF
:10886000082009680882002070470000800000206E
:10887000C80100207047704710B5FCF7C9FA0648D8
:10888000002400688472FDF7F7FEFFF787FEFFF70C
:1088900073FD0248046010BDC801002010010020D3
:1088A0000FB4054B10B503A9044A029800F00AFC66
:1088B00010BC5DF814FB00008DB800081C020020FD
:1088C0000FB4084B10B504A902AA039800F0FAFBF4
:1088D000044602A9002000F098FF204610BC5DF875
:1088E00014FB00000B980008490050EAC12018BF93
:1088F00004204A0D18BF40F0010040F2FF72B2EBB5
:10890000515F08BF40F00200012808BF05207047F2
:108910002DE9F74F144696B00021C4E902111799CA
:10892000089121F00045CA498D4206DC1799C4E937
:10893000000119B00020BDE8F08FC649DFF818A388
:10894000A9423CDD0899C54E0029C54FC54A179973
:10895000534619DDFAF789FD554506D0C24AC34B87
:10896000FAF783FDC4E900010AE04FF0D352BF4B90
:10897000FAF77BFD32463B46FAF777FDC4E9000182
:1089800019B00120BDE8F08FFAF7CEFC554506D0AE
:10899000B54AB64BFAF7C8FCC4E900010AE04FF04B
:1089A000D352B24BFAF7C0FC32463B46FAF7BCFC56
:1089B000C4E9000119B04FF0FF30BDE8F08FAC49B9
:1089C0008D42179978DC21F000488346A94AAA4BCA
:1089D0004146FAF750FD0022A84BFAF7A5FCFAF73A
:1089E0009BFE0990FAF74DFE06460F469D4A5346F8
:1089F000FAF741FD5A464346FAF73AFD80468A4661
:108A0000994A9A4B30463946FAF735FD2A0D012529
:108A10000B9242465346FAF72BFD032DC4E90001A1
:108A200039D00B98C1F30A51401A05EB45111139A1
:108A3000884230DD9248C346784400EB0510CDF8FB
:108A40001CA00C90D0E9002330463946FAF713FDFC
:108A5000CDE9020102460B4658460799FAF705FD93
:108A600080468A4602460B4658460799FAF7FDFCAF
:108A7000DDE90223FAF7F9FC83460C9803913946A5
:108A8000D0E902233046FAF7F6FC5A46039BFAF780
:108A9000ECFC6D1CBDE708980028A2BF099819B02E
:108AA000BDE8F08F616881F000416160099819B0FC
:108AB0004042BDE8F08FFFE7C1F3130141F480119C
:108AC0000E911799C1F30A51A1F2F532511102F03A
:108AD0001F08C8F12002129200220C920D92694ADE
